{
  "contractName": "ecom",
  "abi": [
    {
      "inputs": [],
      "payable": false,
      "stateMutability": "nonpayable",
      "type": "constructor"
    },
    {
      "constant": true,
      "inputs": [
        {
          "internalType": "uint256",
          "name": "",
          "type": "uint256"
        }
      ],
      "name": "allProducts",
      "outputs": [
        {
          "internalType": "string",
          "name": "",
          "type": "string"
        }
      ],
      "payable": false,
      "stateMutability": "view",
      "type": "function"
    },
    {
      "constant": true,
      "inputs": [],
      "name": "owner",
      "outputs": [
        {
          "internalType": "address payable",
          "name": "",
          "type": "address"
        }
      ],
      "payable": false,
      "stateMutability": "view",
      "type": "function"
    },
    {
      "constant": true,
      "inputs": [
        {
          "internalType": "string",
          "name": "",
          "type": "string"
        }
      ],
      "name": "products",
      "outputs": [
        {
          "internalType": "string",
          "name": "productId",
          "type": "string"
        },
        {
          "internalType": "string",
          "name": "productName",
          "type": "string"
        },
        {
          "internalType": "uint256",
          "name": "price",
          "type": "uint256"
        },
        {
          "internalType": "string",
          "name": "description",
          "type": "string"
        },
        {
          "internalType": "address payable",
          "name": "seller",
          "type": "address"
        },
        {
          "internalType": "bool",
          "name": "isActive",
          "type": "bool"
        },
        {
          "internalType": "address",
          "name": "owner",
          "type": "address"
        }
      ],
      "payable": false,
      "stateMutability": "view",
      "type": "function"
    },
    {
      "constant": true,
      "inputs": [
        {
          "internalType": "address",
          "name": "",
          "type": "address"
        }
      ],
      "name": "sellers",
      "outputs": [
        {
          "internalType": "string",
          "name": "name",
          "type": "string"
        },
        {
          "internalType": "address",
          "name": "addr",
          "type": "address"
        },
        {
          "internalType": "uint256",
          "name": "bankGuaraantee",
          "type": "uint256"
        },
        {
          "internalType": "bool",
          "name": "bgPaid",
          "type": "bool"
        }
      ],
      "payable": false,
      "stateMutability": "view",
      "type": "function"
    },
    {
      "constant": true,
      "inputs": [
        {
          "internalType": "address",
          "name": "",
          "type": "address"
        }
      ],
      "name": "users",
      "outputs": [
        {
          "internalType": "string",
          "name": "name",
          "type": "string"
        },
        {
          "internalType": "string",
          "name": "email",
          "type": "string"
        },
        {
          "internalType": "bool",
          "name": "isCreated",
          "type": "bool"
        }
      ],
      "payable": false,
      "stateMutability": "view",
      "type": "function"
    },
    {
      "constant": false,
      "inputs": [
        {
          "internalType": "string",
          "name": "_name",
          "type": "string"
        }
      ],
      "name": "sellerSignUp",
      "outputs": [],
      "payable": true,
      "stateMutability": "payable",
      "type": "function"
    },
    {
      "constant": false,
      "inputs": [
        {
          "internalType": "string",
          "name": "_name",
          "type": "string"
        },
        {
          "internalType": "string",
          "name": "_email",
          "type": "string"
        }
      ],
      "name": "createAccount",
      "outputs": [],
      "payable": false,
      "stateMutability": "nonpayable",
      "type": "function"
    },
    {
      "constant": false,
      "inputs": [
        {
          "internalType": "string",
          "name": "_productId",
          "type": "string"
        }
      ],
      "name": "buyProduct",
      "outputs": [],
      "payable": true,
      "stateMutability": "payable",
      "type": "function"
    },
    {
      "constant": true,
      "inputs": [],
      "name": "getProductCount",
      "outputs": [
        {
          "internalType": "uint256",
          "name": "count",
          "type": "uint256"
        }
      ],
      "payable": false,
      "stateMutability": "view",
      "type": "function"
    },
    {
      "constant": false,
      "inputs": [
        {
          "internalType": "string",
          "name": "_productId",
          "type": "string"
        },
        {
          "internalType": "string",
          "name": "_productName",
          "type": "string"
        },
        {
          "internalType": "uint256",
          "name": "_price",
          "type": "uint256"
        },
        {
          "internalType": "string",
          "name": "_description",
          "type": "string"
        }
      ],
      "name": "addProduct",
      "outputs": [],
      "payable": false,
      "stateMutability": "nonpayable",
      "type": "function"
    },
    {
      "constant": true,
      "inputs": [
        {
          "internalType": "uint256",
          "name": "_index",
          "type": "uint256"
        }
      ],
      "name": "myOrders",
      "outputs": [
        {
          "internalType": "string",
          "name": "",
          "type": "string"
        },
        {
          "internalType": "uint256",
          "name": "",
          "type": "uint256"
        }
      ],
      "payable": false,
      "stateMutability": "view",
      "type": "function"
    }
  ],
  "bytecode": "0x608060405234801561001057600080fd5b50336000806101000a81548173ffffffffffffffffffffffffffffffffffffffff021916908373ffffffffffffffffffffffffffffffffffffffff16021790555061246b806100606000396000f3fe60806040526004361061009c5760003560e01c80636d47ab72116100645780636d47ab72146106325780638da5cb5b14610741578063a87430ba14610798578063cfaaef56146108d9578063f800d3321461098d578063fd6141de14610b8d5761009c565b80630186a423146100a157806319289287146103325780631e1cdf6c14610491578063364e022f1461054c5780634a348da914610607575b600080fd5b3480156100ad57600080fd5b50610167600480360360208110156100c457600080fd5b81019080803590602001906401000000008111156100e157600080fd5b8201836020820111156100f357600080fd5b8035906020019184600183028401116401000000008311171561011557600080fd5b91908080601f016020809104026020016040519081016040528093929190818152602001838380828437600081840152601f19601f820116905080830192505050505050509192919290505050610c48565b604051808060200180602001888152602001806020018773ffffffffffffffffffffffffffffffffffffffff1673ffffffffffffffffffffffffffffffffffffffff168152602001861515151581526020018573ffffffffffffffffffffffffffffffffffffffff1673ffffffffffffffffffffffffffffffffffffffff16815260200184810384528b818151815260200191508051906020019080838360005b83811015610223578082015181840152602081019050610208565b50505050905090810190601f1680156102505780820380516001836020036101000a031916815260200191505b5084810383528a818151815260200191508051906020019080838360005b8381101561028957808201518184015260208101905061026e565b50505050905090810190601f1680156102b65780820380516001836020036101000a031916815260200191505b50848103825288818151815260200191508051906020019080838360005b838110156102ef5780820151818401526020810190506102d4565b50505050905090810190601f16801561031c5780820380516001836020036101000a031916815260200191505b509a505050505050505050505060405180910390f35b34801561033e57600080fd5b5061048f6004803603604081101561035557600080fd5b810190808035906020019064010000000081111561037257600080fd5b82018360208201111561038457600080fd5b803590602001918460018302840111640100000000831117156103a657600080fd5b91908080601f016020809104026020016040519081016040528093929190818152602001838380828437600081840152601f19601f8201169050808301925050505050505091929192908035906020019064010000000081111561040957600080fd5b82018360208201111561041b57600080fd5b8035906020019184600183028401116401000000008311171561043d57600080fd5b91908080601f016020809104026020016040519081016040528093929190818152602001838380828437600081840152601f19601f820116905080830192505050505050509192919290505050610eb5565b005b61054a600480360360208110156104a757600080fd5b81019080803590602001906401000000008111156104c457600080fd5b8201836020820111156104d657600080fd5b803590602001918460018302840111640100000000831117156104f857600080fd5b91908080601f016020809104026020016040519081016040528093929190818152602001838380828437600081840152601f19601f820116905080830192505050505050509192919290505050610fc2565b005b6106056004803603602081101561056257600080fd5b810190808035906020019064010000000081111561057f57600080fd5b82018360208201111561059157600080fd5b803590602001918460018302840111640100000000831117156105b357600080fd5b91908080601f016020809104026020016040519081016040528093929190818152602001838380828437600081840152601f19601f8201169050808301925050505050505091929192905050506112e7565b005b34801561061357600080fd5b5061061c611741565b6040518082815260200191505060405180910390f35b34801561063e57600080fd5b506106816004803603602081101561065557600080fd5b81019080803573ffffffffffffffffffffffffffffffffffffffff16906020019092919050505061174e565b60405180806020018573ffffffffffffffffffffffffffffffffffffffff1673ffffffffffffffffffffffffffffffffffffffff16815260200184815260200183151515158152602001828103825286818151815260200191508051906020019080838360005b838110156107035780820151818401526020810190506106e8565b50505050905090810190601f1680156107305780820380516001836020036101000a031916815260200191505b509550505050505060405180910390f35b34801561074d57600080fd5b50610756611843565b604051808273ffffffffffffffffffffffffffffffffffffffff1673ffffffffffffffffffffffffffffffffffffffff16815260200191505060405180910390f35b3480156107a457600080fd5b506107e7600480360360208110156107bb57600080fd5b81019080803573ffffffffffffffffffffffffffffffffffffffff169060200190929190505050611868565b60405180806020018060200184151515158152602001838103835286818151815260200191508051906020019080838360005b8381101561083557808201518184015260208101905061081a565b50505050905090810190601f1680156108625780820380516001836020036101000a031916815260200191505b50838103825285818151815260200191508051906020019080838360005b8381101561089b578082015181840152602081019050610880565b50505050905090810190601f1680156108c85780820380516001836020036101000a031916815260200191505b509550505050505060405180910390f35b3480156108e557600080fd5b50610912600480360360208110156108fc57600080fd5b81019080803590602001909291905050506119cf565b6040518080602001828103825283818151815260200191508051906020019080838360005b83811015610952578082015181840152602081019050610937565b50505050905090810190601f16801561097f5780820380516001836020036101000a031916815260200191505b509250505060405180910390f35b34801561099957600080fd5b50610b8b600480360360808110156109b057600080fd5b81019080803590602001906401000000008111156109cd57600080fd5b8201836020820111156109df57600080fd5b80359060200191846001830284011164010000000083111715610a0157600080fd5b91908080601f016020809104026020016040519081016040528093929190818152602001838380828437600081840152601f19601f82011690508083019250505050505050919291929080359060200190640100000000811115610a6457600080fd5b820183602082011115610a7657600080fd5b80359060200191846001830284011164010000000083111715610a9857600080fd5b91908080601f016020809104026020016040519081016040528093929190818152602001838380828437600081840152601f19601f8201169050808301925050505050505091929192908035906020019092919080359060200190640100000000811115610b0557600080fd5b820183602082011115610b1757600080fd5b80359060200191846001830284011164010000000083111715610b3957600080fd5b91908080601f016020809104026020016040519081016040528093929190818152602001838380828437600081840152601f19601f820116905080830192505050505050509192919290505050611a88565b005b348015610b9957600080fd5b50610bc660048036036020811015610bb057600080fd5b81019080803590602001909291905050506120cb565b6040518080602001838152602001828103825284818151815260200191508051906020019080838360005b83811015610c0c578082015181840152602081019050610bf1565b50505050905090810190601f168015610c395780820380516001836020036101000a031916815260200191505b50935050505060405180910390f35b600481805160208101820180518482526020830160208501208183528095505050505050600091509050806000018054600181600116156101000203166002900480601f016020809104026020016040519081016040528092919081815260200182805460018160011615610100020316600290048015610d0a5780601f10610cdf57610100808354040283529160200191610d0a565b820191906000526020600020905b815481529060010190602001808311610ced57829003601f168201915b505050505090806001018054600181600116156101000203166002900480601f016020809104026020016040519081016040528092919081815260200182805460018160011615610100020316600290048015610da85780601f10610d7d57610100808354040283529160200191610da8565b820191906000526020600020905b815481529060010190602001808311610d8b57829003601f168201915b505050505090806002015490806003018054600181600116156101000203166002900480601f016020809104026020016040519081016040528092919081815260200182805460018160011615610100020316600290048015610e4c5780601f10610e2157610100808354040283529160200191610e4c565b820191906000526020600020905b815481529060010190602001808311610e2f57829003601f168201915b5050505050908060040160009054906101000a900473ffffffffffffffffffffffffffffffffffffffff16908060040160149054906101000a900460ff16908060050160009054906101000a900473ffffffffffffffffffffffffffffffffffffffff16905087565b81600660003373ffffffffffffffffffffffffffffffffffffffff1673ffffffffffffffffffffffffffffffffffffffff1681526020019081526020016000206000019080519060200190610f0b92919061222b565b5080600660003373ffffffffffffffffffffffffffffffffffffffff1673ffffffffffffffffffffffffffffffffffffffff1681526020019081526020016000206001019080519060200190610f6292919061222b565b506001600660003373ffffffffffffffffffffffffffffffffffffffff1673ffffffffffffffffffffffffffffffffffffffff16815260200190815260200160002060020160006101000a81548160ff0219169083151502179055505050565b600360003373ffffffffffffffffffffffffffffffffffffffff1673ffffffffffffffffffffffffffffffffffffffff16815260200190815260200160002060030160009054906101000a900460ff1615611085576040517f08c379a000000000000000000000000000000000000000000000000000000000815260040180806020018281038252601a8152602001807f596f752061726520416c7265616479205265676973746572656400000000000081525060200191505060405180910390fd5b674563918244f400003414611102576040517f08c379a000000000000000000000000000000000000000000000000000000000815260040180806020018281038252601f8152602001807f42616e6b2047756172616e746565206f6620354554482052657175697265640081525060200191505060405180910390fd5b6000809054906101000a900473ffffffffffffffffffffffffffffffffffffffff1673ffffffffffffffffffffffffffffffffffffffff166108fc349081150290604051600060405180830381858888f19350505050158015611169573d6000803e3d6000fd5b5080600360003373ffffffffffffffffffffffffffffffffffffffff1673ffffffffffffffffffffffffffffffffffffffff16815260200190815260200160002060000190805190602001906111c092919061222b565b5033600360003373ffffffffffffffffffffffffffffffffffffffff1673ffffffffffffffffffffffffffffffffffffffff16815260200190815260200160002060010160006101000a81548173ffffffffffffffffffffffffffffffffffffffff021916908373ffffffffffffffffffffffffffffffffffffffff16021790555034600360003373ffffffffffffffffffffffffffffffffffffffff1673ffffffffffffffffffffffffffffffffffffffff168152602001908152602001600020600201819055506001600360003373ffffffffffffffffffffffffffffffffffffffff1673ffffffffffffffffffffffffffffffffffffffff16815260200190815260200160002060030160006101000a81548160ff02191690831515021790555050565b6004816040518082805190602001908083835b6020831061131d57805182526020820191506020810190506020830392506112fa565b6001836020036101000a03801982511681845116808217855250505050505090500191505090815260200160405180910390206002015434146113ab576040517f08c379a00000000000000000000000000000000000000000000000000000000081526004018080602001828103825260278152602001806123d66027913960400191505060405180910390fd5b600660003373ffffffffffffffffffffffffffffffffffffffff1673ffffffffffffffffffffffffffffffffffffffff16815260200190815260200160002060020160009054906101000a900460ff1661146d576040517f08c379a000000000000000000000000000000000000000000000000000000000815260040180806020018281038252601d8152602001807f596f75204d757374204265205265676973746572656420746f2042757900000081525060200191505060405180910390fd5b6004816040518082805190602001908083835b602083106114a35780518252602082019150602081019050602083039250611480565b6001836020036101000a038019825116818451168082178552505050505050905001915050908152602001604051809103902060040160009054906101000a900473ffffffffffffffffffffffffffffffffffffffff1673ffffffffffffffffffffffffffffffffffffffff166108fc349081150290604051600060405180830381858888f1935050505015801561153f573d6000803e3d6000fd5b50600160008154809291906001019190505560028190555061155f6122ab565b60405180604001604052808381526020016002548152509050600760003373ffffffffffffffffffffffffffffffffffffffff1673ffffffffffffffffffffffffffffffffffffffff168152602001908152602001600020819080600181540180825580915050906001820390600052602060002090600202016000909192909190915060008201518160000190805190602001906115ff9291906122c5565b5060208201518160010155505050336004836040518082805190602001908083835b602083106116445780518252602082019150602081019050602083039250611621565b6001836020036101000a038019825116818451168082178552505050505050905001915050908152602001604051809103902060050160006101000a81548173ffffffffffffffffffffffffffffffffffffffff021916908373ffffffffffffffffffffffffffffffffffffffff16021790555060006004836040518082805190602001908083835b602083106116f057805182526020820191506020810190506020830392506116cd565b6001836020036101000a038019825116818451168082178552505050505050905001915050908152602001604051809103902060040160146101000a81548160ff0219169083151502179055505050565b6000600580549050905090565b6003602052806000526040600020600091509050806000018054600181600116156101000203166002900480601f0160208091040260200160405190810160405280929190818152602001828054600181600116156101000203166002900480156117fa5780601f106117cf576101008083540402835291602001916117fa565b820191906000526020600020905b8154815290600101906020018083116117dd57829003601f168201915b5050505050908060010160009054906101000a900473ffffffffffffffffffffffffffffffffffffffff16908060020154908060030160009054906101000a900460ff16905084565b6000809054906101000a900473ffffffffffffffffffffffffffffffffffffffff1681565b6006602052806000526040600020600091509050806000018054600181600116156101000203166002900480601f0160208091040260200160405190810160405280929190818152602001828054600181600116156101000203166002900480156119145780601f106118e957610100808354040283529160200191611914565b820191906000526020600020905b8154815290600101906020018083116118f757829003601f168201915b505050505090806001018054600181600116156101000203166002900480601f0160208091040260200160405190810160405280929190818152602001828054600181600116156101000203166002900480156119b25780601f10611987576101008083540402835291602001916119b2565b820191906000526020600020905b81548152906001019060200180831161199557829003601f168201915b5050505050908060020160009054906101000a900460ff16905083565b600581815481106119dc57fe5b906000526020600020016000915090508054600181600116156101000203166002900480601f016020809104026020016040519081016040528092919081815260200182805460018160011615610100020316600290048015611a805780601f10611a5557610100808354040283529160200191611a80565b820191906000526020600020905b815481529060010190602001808311611a6357829003601f168201915b505050505081565b600360003373ffffffffffffffffffffffffffffffffffffffff1673ffffffffffffffffffffffffffffffffffffffff16815260200190815260200160002060030160009054906101000a900460ff16611b4a576040517f08c379a00000000000000000000000000000000000000000000000000000000081526004018080602001828103825260208152602001807f596f7520617265206e6f7420526567697374657265642061732053656c6c657281525060200191505060405180910390fd5b6004846040518082805190602001908083835b60208310611b805780518252602082019150602081019050602083039250611b5d565b6001836020036101000a038019825116818451168082178552505050505050905001915050908152602001604051809103902060040160149054906101000a900460ff1615611c1a576040517f08c379a000000000000000000000000000000000000000000000000000000000815260040180806020018281038252603a8152602001806123fd603a913960400191505060405180910390fd5b611c22612345565b6040518060e001604052808681526020018581526020018481526020018381526020013373ffffffffffffffffffffffffffffffffffffffff1681526020016001151581526020013373ffffffffffffffffffffffffffffffffffffffff1681525090508060000151600482600001516040518082805190602001908083835b60208310611cc55780518252602082019150602081019050602083039250611ca2565b6001836020036101000a03801982511681845116808217855250505050505090500191505090815260200160405180910390206000019080519060200190611d0e92919061222b565b508060200151600482600001516040518082805190602001908083835b60208310611d4e5780518252602082019150602081019050602083039250611d2b565b6001836020036101000a03801982511681845116808217855250505050505090500191505090815260200160405180910390206001019080519060200190611d9792919061222b565b508060600151600482600001516040518082805190602001908083835b60208310611dd75780518252602082019150602081019050602083039250611db4565b6001836020036101000a03801982511681845116808217855250505050505090500191505090815260200160405180910390206003019080519060200190611e2092919061222b565b508060400151600482600001516040518082805190602001908083835b60208310611e605780518252602082019150602081019050602083039250611e3d565b6001836020036101000a03801982511681845116808217855250505050505090500191505090815260200160405180910390206002018190555033600482600001516040518082805190602001908083835b60208310611ed55780518252602082019150602081019050602083039250611eb2565b6001836020036101000a038019825116818451168082178552505050505050905001915050908152602001604051809103902060040160006101000a81548173ffffffffffffffffffffffffffffffffffffffff021916908373ffffffffffffffffffffffffffffffffffffffff1602179055506001600482600001516040518082805190602001908083835b60208310611f855780518252602082019150602081019050602083039250611f62565b6001836020036101000a038019825116818451168082178552505050505050905001915050908152602001604051809103902060040160146101000a81548160ff02191690831515021790555033600482600001516040518082805190602001908083835b6020831061200d5780518252602082019150602081019050602083039250611fea565b6001836020036101000a038019825116818451168082178552505050505050905001915050908152602001604051809103902060050160006101000a81548173ffffffffffffffffffffffffffffffffffffffff021916908373ffffffffffffffffffffffffffffffffffffffff1602179055506005816000015190806001815401808255809150509060018203906000526020600020016000909192909190915090805190602001906120c292919061222b565b50505050505050565b60606000600760003373ffffffffffffffffffffffffffffffffffffffff1673ffffffffffffffffffffffffffffffffffffffff168152602001908152602001600020838154811061211957fe5b9060005260206000209060020201600001600760003373ffffffffffffffffffffffffffffffffffffffff1673ffffffffffffffffffffffffffffffffffffffff168152602001908152602001600020848154811061217457fe5b906000526020600020906002020160010154818054600181600116156101000203166002900480601f01602080910402602001604051908101604052809291908181526020018280546001816001161561010002031660029004801561221b5780601f106121f05761010080835404028352916020019161221b565b820191906000526020600020905b8154815290600101906020018083116121fe57829003601f168201915b5050505050915091509150915091565b828054600181600116156101000203166002900490600052602060002090601f016020900481019282601f1061226c57805160ff191683800117855561229a565b8280016001018555821561229a579182015b8281111561229957825182559160200191906001019061227e565b5b5090506122a791906123b0565b5090565b604051806040016040528060608152602001600081525090565b828054600181600116156101000203166002900490600052602060002090601f016020900481019282601f1061230657805160ff1916838001178555612334565b82800160010185558215612334579182015b82811115612333578251825591602001919060010190612318565b5b50905061234191906123b0565b5090565b6040518060e0016040528060608152602001606081526020016000815260200160608152602001600073ffffffffffffffffffffffffffffffffffffffff168152602001600015158152602001600073ffffffffffffffffffffffffffffffffffffffff1681525090565b6123d291905b808211156123ce5760008160009055506001016123b6565b5090565b9056fe56616c7565204d75737420626520457175616c20746f205072696365206f662050726f6475637450726f647563742057697468207468697320496420697320616c7265616479204163746976652e20557365206f7468657220556e697175654964a265627a7a72315820093d118ad899331aa3562221e254c2acfed13ad58b583d2bf27b31b44725de7164736f6c63430005100032",
  "source": "pragma solidity ^0.5.4;\n\ncontract ecom {\n    address payable public owner;\n\n    constructor() public {\n        owner = msg.sender;\n    }\n\n    uint256 id;\n    uint256 purchaseId;\n    struct seller {\n        string name;\n        address addr;\n        uint256 bankGuaraantee;\n        bool bgPaid;\n    }\n    struct product {\n        string productId;\n        string productName;\n        uint256 price;\n        string description;\n        address payable seller;\n        bool isActive;\n\t\taddress owner;\n    }\n    struct ordersPlaced {\n        string productId;\n        uint256 purchaseId;\n        address orderedBy;\n    }\n    struct user {\n        string name;\n        string email;\n        bool isCreated;\n    }\n    struct orders {\n        string productId;\n        uint256 purchaseId;\n    }\n    mapping(address => seller) public sellers;\n    mapping(string => product) public products;\n    string[] public allProducts;\n\n    mapping(address => user) public users;\n    mapping(address => orders[]) userOrders;\n\n    function sellerSignUp(string memory _name) public payable {\n        require(!sellers[msg.sender].bgPaid, \"You are Already Registered\");\n        require(msg.value == 5 ether, \"Bank Guarantee of 5ETH Required\");\n        owner.transfer(msg.value);\n        sellers[msg.sender].name = _name;\n        sellers[msg.sender].addr = msg.sender;\n        sellers[msg.sender].bankGuaraantee = msg.value;\n        sellers[msg.sender].bgPaid = true;\n    }\n\n    function createAccount(\n        string memory _name,\n        string memory _email\n    ) public {\n        users[msg.sender].name = _name;\n        users[msg.sender].email = _email;\n        users[msg.sender].isCreated = true;\n    }\n\n    function buyProduct(string memory _productId) public payable {\n        require(\n            msg.value == products[_productId].price,\n            \"Value Must be Equal to Price of Product\"\n        );\n        require(users[msg.sender].isCreated, \"You Must Be Registered to Buy\");\n\n        products[_productId].seller.transfer(msg.value);\n\n        purchaseId = id++;\n        orders memory order = orders(\n            _productId,\n            purchaseId\n        );\n        userOrders[msg.sender].push(order);\n        products[_productId].owner = msg.sender;\n        products[_productId].isActive = false;\n        \n    }\n\n    function getProductCount() public view returns(uint count) {\n        return allProducts.length;\n    }\n\n    function addProduct(\n        string memory _productId,\n        string memory _productName,\n        uint256 _price,\n        string memory _description\n    ) public {\n        require(sellers[msg.sender].bgPaid, \"You are not Registered as Seller\");\n        require(\n            !products[_productId].isActive,\n            \"Product With this Id is already Active. Use other UniqueId\"\n        );\n\n        product memory productInstace = product(\n            _productId,\n            _productName,\n            _price,\n            _description,\n            msg.sender,\n            true,\n\t\t\tmsg.sender\n        );\n        products[productInstace.productId].productId = productInstace.productId;\n        products[productInstace.productId].productName = productInstace.productName;\n        products[productInstace.productId].description = productInstace.description;\n        products[productInstace.productId].price = productInstace.price;\n        products[productInstace.productId].seller = msg.sender;\n        products[productInstace.productId].isActive = true;\n\t\tproducts[productInstace.productId].owner = msg.sender;\n        allProducts.push(productInstace.productId);\n    }\n\n    function myOrders(uint256 _index)\n        public\n        view\n        returns(string memory, uint)\n    {\n        return (userOrders[msg.sender][_index].productId, userOrders[msg.sender][_index].purchaseId);\n    }\n}\n",
  "sourcePath": "/Users/akhil/Desktop/d-e-app/contracts/ecom.sol",
  "compiler": {
    "name": "solc",
    "version": "0.5.16+commit.9c3226ce.Emscripten.clang"
  },
  "schemaVersion": "3.4.4",
  "updatedAt": "2022-04-24T02:45:28.855Z",
  "networkType": "ethereum",
  "devdoc": {
    "methods": {}
  },
  "userdoc": {
    "methods": {}
  }
}