{
  "contractName": "ecom",
  "abi": [
    {
      "inputs": [],
      "payable": false,
      "stateMutability": "nonpayable",
      "type": "constructor"
    },
    {
      "constant": true,
      "inputs": [
        {
          "internalType": "uint256",
          "name": "",
          "type": "uint256"
        }
      ],
      "name": "allProducts",
      "outputs": [
        {
          "internalType": "string",
          "name": "productId",
          "type": "string"
        },
        {
          "internalType": "string",
          "name": "productName",
          "type": "string"
        },
        {
          "internalType": "string",
          "name": "Category",
          "type": "string"
        },
        {
          "internalType": "uint256",
          "name": "price",
          "type": "uint256"
        },
        {
          "internalType": "string",
          "name": "description",
          "type": "string"
        },
        {
          "internalType": "address payable",
          "name": "seller",
          "type": "address"
        },
        {
          "internalType": "bool",
          "name": "isActive",
          "type": "bool"
        },
        {
          "internalType": "address",
          "name": "owner",
          "type": "address"
        }
      ],
      "payable": false,
      "stateMutability": "view",
      "type": "function"
    },
    {
      "constant": true,
      "inputs": [],
      "name": "noOfProducts",
      "outputs": [
        {
          "internalType": "uint256",
          "name": "",
          "type": "uint256"
        }
      ],
      "payable": false,
      "stateMutability": "view",
      "type": "function"
    },
    {
      "constant": true,
      "inputs": [],
      "name": "owner",
      "outputs": [
        {
          "internalType": "address payable",
          "name": "",
          "type": "address"
        }
      ],
      "payable": false,
      "stateMutability": "view",
      "type": "function"
    },
    {
      "constant": true,
      "inputs": [
        {
          "internalType": "address",
          "name": "",
          "type": "address"
        }
      ],
      "name": "sellers",
      "outputs": [
        {
          "internalType": "string",
          "name": "name",
          "type": "string"
        },
        {
          "internalType": "address",
          "name": "addr",
          "type": "address"
        },
        {
          "internalType": "uint256",
          "name": "bankGuaraantee",
          "type": "uint256"
        },
        {
          "internalType": "bool",
          "name": "bgPaid",
          "type": "bool"
        }
      ],
      "payable": false,
      "stateMutability": "view",
      "type": "function"
    },
    {
      "constant": true,
      "inputs": [
        {
          "internalType": "address",
          "name": "",
          "type": "address"
        }
      ],
      "name": "users",
      "outputs": [
        {
          "internalType": "string",
          "name": "name",
          "type": "string"
        },
        {
          "internalType": "string",
          "name": "email",
          "type": "string"
        },
        {
          "internalType": "bool",
          "name": "isCreated",
          "type": "bool"
        }
      ],
      "payable": false,
      "stateMutability": "view",
      "type": "function"
    },
    {
      "constant": false,
      "inputs": [
        {
          "internalType": "string",
          "name": "_name",
          "type": "string"
        }
      ],
      "name": "sellerSignUp",
      "outputs": [],
      "payable": true,
      "stateMutability": "payable",
      "type": "function"
    },
    {
      "constant": false,
      "inputs": [
        {
          "internalType": "string",
          "name": "_name",
          "type": "string"
        },
        {
          "internalType": "string",
          "name": "_email",
          "type": "string"
        }
      ],
      "name": "createAccount",
      "outputs": [],
      "payable": false,
      "stateMutability": "nonpayable",
      "type": "function"
    },
    {
      "constant": false,
      "inputs": [
        {
          "internalType": "string",
          "name": "_productId",
          "type": "string"
        }
      ],
      "name": "buyProduct",
      "outputs": [],
      "payable": true,
      "stateMutability": "payable",
      "type": "function"
    },
    {
      "constant": false,
      "inputs": [
        {
          "internalType": "string",
          "name": "_productId",
          "type": "string"
        },
        {
          "internalType": "string",
          "name": "_productName",
          "type": "string"
        },
        {
          "internalType": "string",
          "name": "_category",
          "type": "string"
        },
        {
          "internalType": "uint256",
          "name": "_price",
          "type": "uint256"
        },
        {
          "internalType": "string",
          "name": "_description",
          "type": "string"
        }
      ],
      "name": "addProduct",
      "outputs": [],
      "payable": false,
      "stateMutability": "nonpayable",
      "type": "function"
    },
    {
      "constant": true,
      "inputs": [
        {
          "internalType": "uint256",
          "name": "_index",
          "type": "uint256"
        }
      ],
      "name": "myOrders",
      "outputs": [
        {
          "internalType": "string",
          "name": "",
          "type": "string"
        },
        {
          "internalType": "uint256",
          "name": "",
          "type": "uint256"
        }
      ],
      "payable": false,
      "stateMutability": "view",
      "type": "function"
    }
  ],
  "bytecode": "0x608060405234801561001057600080fd5b50336000806101000a81548173ffffffffffffffffffffffffffffffffffffffff021916908373ffffffffffffffffffffffffffffffffffffffff16021790555060006001819055506125bc806100686000396000f3fe6080604052600436106100915760003560e01c80638da5cb5b116100595780638da5cb5b14610711578063a87430ba14610768578063cfaaef56146108a9578063e1e4330014610b19578063fd6141de14610b4457610091565b806319289287146100965780631e1cdf6c146101f5578063364e022f146102b05780636d29d9721461036b5780636d47ab7214610602575b600080fd5b3480156100a257600080fd5b506101f3600480360360408110156100b957600080fd5b81019080803590602001906401000000008111156100d657600080fd5b8201836020820111156100e857600080fd5b8035906020019184600183028401116401000000008311171561010a57600080fd5b91908080601f016020809104026020016040519081016040528093929190818152602001838380828437600081840152601f19601f8201169050808301925050505050505091929192908035906020019064010000000081111561016d57600080fd5b82018360208201111561017f57600080fd5b803590602001918460018302840111640100000000831117156101a157600080fd5b91908080601f016020809104026020016040519081016040528093929190818152602001838380828437600081840152601f19601f820116905080830192505050505050509192919290505050610bff565b005b6102ae6004803603602081101561020b57600080fd5b810190808035906020019064010000000081111561022857600080fd5b82018360208201111561023a57600080fd5b8035906020019184600183028401116401000000008311171561025c57600080fd5b91908080601f016020809104026020016040519081016040528093929190818152602001838380828437600081840152601f19601f820116905080830192505050505050509192919290505050610d0c565b005b610369600480360360208110156102c657600080fd5b81019080803590602001906401000000008111156102e357600080fd5b8201836020820111156102f557600080fd5b8035906020019184600183028401116401000000008311171561031757600080fd5b91908080601f016020809104026020016040519081016040528093929190818152602001838380828437600081840152601f19601f820116905080830192505050505050509192919290505050611031565b005b34801561037757600080fd5b50610600600480360360a081101561038e57600080fd5b81019080803590602001906401000000008111156103ab57600080fd5b8201836020820111156103bd57600080fd5b803590602001918460018302840111640100000000831117156103df57600080fd5b91908080601f016020809104026020016040519081016040528093929190818152602001838380828437600081840152601f19601f8201169050808301925050505050505091929192908035906020019064010000000081111561044257600080fd5b82018360208201111561045457600080fd5b8035906020019184600183028401116401000000008311171561047657600080fd5b91908080601f016020809104026020016040519081016040528093929190818152602001838380828437600081840152601f19601f820116905080830192505050505050509192919290803590602001906401000000008111156104d957600080fd5b8201836020820111156104eb57600080fd5b8035906020019184600183028401116401000000008311171561050d57600080fd5b91908080601f016020809104026020016040519081016040528093929190818152602001838380828437600081840152601f19601f820116905080830192505050505050509192919290803590602001909291908035906020019064010000000081111561057a57600080fd5b82018360208201111561058c57600080fd5b803590602001918460018302840111640100000000831117156105ae57600080fd5b91908080601f016020809104026020016040519081016040528093929190818152602001838380828437600081840152601f19601f82011690508083019250505050505050919291929050505061148b565b005b34801561060e57600080fd5b506106516004803603602081101561062557600080fd5b81019080803573ffffffffffffffffffffffffffffffffffffffff169060200190929190505050611c8b565b60405180806020018573ffffffffffffffffffffffffffffffffffffffff1673ffffffffffffffffffffffffffffffffffffffff16815260200184815260200183151515158152602001828103825286818151815260200191508051906020019080838360005b838110156106d35780820151818401526020810190506106b8565b50505050905090810190601f1680156107005780820380516001836020036101000a031916815260200191505b509550505050505060405180910390f35b34801561071d57600080fd5b50610726611d80565b604051808273ffffffffffffffffffffffffffffffffffffffff1673ffffffffffffffffffffffffffffffffffffffff16815260200191505060405180910390f35b34801561077457600080fd5b506107b76004803603602081101561078b57600080fd5b81019080803573ffffffffffffffffffffffffffffffffffffffff169060200190929190505050611da5565b60405180806020018060200184151515158152602001838103835286818151815260200191508051906020019080838360005b838110156108055780820151818401526020810190506107ea565b50505050905090810190601f1680156108325780820380516001836020036101000a031916815260200191505b50838103825285818151815260200191508051906020019080838360005b8381101561086b578082015181840152602081019050610850565b50505050905090810190601f1680156108985780820380516001836020036101000a031916815260200191505b509550505050505060405180910390f35b3480156108b557600080fd5b506108e2600480360360208110156108cc57600080fd5b8101908080359060200190929190505050611f0c565b60405180806020018060200180602001898152602001806020018873ffffffffffffffffffffffffffffffffffffffff1673ffffffffffffffffffffffffffffffffffffffff168152602001871515151581526020018673ffffffffffffffffffffffffffffffffffffffff1673ffffffffffffffffffffffffffffffffffffffff16815260200185810385528d818151815260200191508051906020019080838360005b838110156109a2578082015181840152602081019050610987565b50505050905090810190601f1680156109cf5780820380516001836020036101000a031916815260200191505b5085810384528c818151815260200191508051906020019080838360005b83811015610a085780820151818401526020810190506109ed565b50505050905090810190601f168015610a355780820380516001836020036101000a031916815260200191505b5085810383528b818151815260200191508051906020019080838360005b83811015610a6e578082015181840152602081019050610a53565b50505050905090810190601f168015610a9b5780820380516001836020036101000a031916815260200191505b50858103825289818151815260200191508051906020019080838360005b83811015610ad4578082015181840152602081019050610ab9565b50505050905090810190601f168015610b015780820380516001836020036101000a031916815260200191505b509c5050505050505050505050505060405180910390f35b348015610b2557600080fd5b50610b2e61220e565b6040518082815260200191505060405180910390f35b348015610b5057600080fd5b50610b7d60048036036020811015610b6757600080fd5b8101908080359060200190929190505050612214565b6040518080602001838152602001828103825284818151815260200191508051906020019080838360005b83811015610bc3578082015181840152602081019050610ba8565b50505050905090810190601f168015610bf05780820380516001836020036101000a031916815260200191505b50935050505060405180910390f35b81600760003373ffffffffffffffffffffffffffffffffffffffff1673ffffffffffffffffffffffffffffffffffffffff1681526020019081526020016000206000019080519060200190610c55929190612374565b5080600760003373ffffffffffffffffffffffffffffffffffffffff1673ffffffffffffffffffffffffffffffffffffffff1681526020019081526020016000206001019080519060200190610cac929190612374565b506001600760003373ffffffffffffffffffffffffffffffffffffffff1673ffffffffffffffffffffffffffffffffffffffff16815260200190815260200160002060020160006101000a81548160ff0219169083151502179055505050565b600460003373ffffffffffffffffffffffffffffffffffffffff1673ffffffffffffffffffffffffffffffffffffffff16815260200190815260200160002060030160009054906101000a900460ff1615610dcf576040517f08c379a000000000000000000000000000000000000000000000000000000000815260040180806020018281038252601a8152602001807f596f752061726520416c7265616479205265676973746572656400000000000081525060200191505060405180910390fd5b674563918244f400003414610e4c576040517f08c379a000000000000000000000000000000000000000000000000000000000815260040180806020018281038252601f8152602001807f42616e6b2047756172616e746565206f6620354554482052657175697265640081525060200191505060405180910390fd5b6000809054906101000a900473ffffffffffffffffffffffffffffffffffffffff1673ffffffffffffffffffffffffffffffffffffffff166108fc349081150290604051600060405180830381858888f19350505050158015610eb3573d6000803e3d6000fd5b5080600460003373ffffffffffffffffffffffffffffffffffffffff1673ffffffffffffffffffffffffffffffffffffffff1681526020019081526020016000206000019080519060200190610f0a929190612374565b5033600460003373ffffffffffffffffffffffffffffffffffffffff1673ffffffffffffffffffffffffffffffffffffffff16815260200190815260200160002060010160006101000a81548173ffffffffffffffffffffffffffffffffffffffff021916908373ffffffffffffffffffffffffffffffffffffffff16021790555034600460003373ffffffffffffffffffffffffffffffffffffffff1673ffffffffffffffffffffffffffffffffffffffff168152602001908152602001600020600201819055506001600460003373ffffffffffffffffffffffffffffffffffffffff1673ffffffffffffffffffffffffffffffffffffffff16815260200190815260200160002060030160006101000a81548160ff02191690831515021790555050565b6005816040518082805190602001908083835b602083106110675780518252602082019150602081019050602083039250611044565b6001836020036101000a03801982511681845116808217855250505050505090500191505090815260200160405180910390206003015434146110f5576040517f08c379a00000000000000000000000000000000000000000000000000000000081526004018080602001828103825260278152602001806125276027913960400191505060405180910390fd5b600760003373ffffffffffffffffffffffffffffffffffffffff1673ffffffffffffffffffffffffffffffffffffffff16815260200190815260200160002060020160009054906101000a900460ff166111b7576040517f08c379a000000000000000000000000000000000000000000000000000000000815260040180806020018281038252601d8152602001807f596f75204d757374204265205265676973746572656420746f2042757900000081525060200191505060405180910390fd5b6005816040518082805190602001908083835b602083106111ed57805182526020820191506020810190506020830392506111ca565b6001836020036101000a038019825116818451168082178552505050505050905001915050908152602001604051809103902060050160009054906101000a900473ffffffffffffffffffffffffffffffffffffffff1673ffffffffffffffffffffffffffffffffffffffff166108fc349081150290604051600060405180830381858888f19350505050158015611289573d6000803e3d6000fd5b5060026000815480929190600101919050556003819055506112a96123f4565b60405180604001604052808381526020016003548152509050600860003373ffffffffffffffffffffffffffffffffffffffff1673ffffffffffffffffffffffffffffffffffffffff1681526020019081526020016000208190806001815401808255809150509060018203906000526020600020906002020160009091929091909150600082015181600001908051906020019061134992919061240e565b5060208201518160010155505050336005836040518082805190602001908083835b6020831061138e578051825260208201915060208101905060208303925061136b565b6001836020036101000a038019825116818451168082178552505050505050905001915050908152602001604051809103902060060160006101000a81548173ffffffffffffffffffffffffffffffffffffffff021916908373ffffffffffffffffffffffffffffffffffffffff16021790555060006005836040518082805190602001908083835b6020831061143a5780518252602082019150602081019050602083039250611417565b6001836020036101000a038019825116818451168082178552505050505050905001915050908152602001604051809103902060050160146101000a81548160ff0219169083151502179055505050565b600460003373ffffffffffffffffffffffffffffffffffffffff1673ffffffffffffffffffffffffffffffffffffffff16815260200190815260200160002060030160009054906101000a900460ff1661154d576040517f08c379a00000000000000000000000000000000000000000000000000000000081526004018080602001828103825260208152602001807f596f7520617265206e6f7420526567697374657265642061732053656c6c657281525060200191505060405180910390fd5b6005856040518082805190602001908083835b602083106115835780518252602082019150602081019050602083039250611560565b6001836020036101000a038019825116818451168082178552505050505050905001915050908152602001604051809103902060050160149054906101000a900460ff161561161d576040517f08c379a000000000000000000000000000000000000000000000000000000000815260040180806020018281038252603a81526020018061254e603a913960400191505060405180910390fd5b61162561248e565b6040518061010001604052808781526020018681526020018581526020018481526020018381526020013373ffffffffffffffffffffffffffffffffffffffff1681526020016001151581526020013373ffffffffffffffffffffffffffffffffffffffff1681525090508060000151600582600001516040518082805190602001908083835b602083106116cf57805182526020820191506020810190506020830392506116ac565b6001836020036101000a03801982511681845116808217855250505050505090500191505090815260200160405180910390206000019080519060200190611718929190612374565b508060200151600582600001516040518082805190602001908083835b602083106117585780518252602082019150602081019050602083039250611735565b6001836020036101000a038019825116818451168082178552505050505050905001915050908152602001604051809103902060010190805190602001906117a1929190612374565b508060400151600582600001516040518082805190602001908083835b602083106117e157805182526020820191506020810190506020830392506117be565b6001836020036101000a0380198251168184511680821785525050505050509050019150509081526020016040518091039020600201908051906020019061182a929190612374565b508060800151600582600001516040518082805190602001908083835b6020831061186a5780518252602082019150602081019050602083039250611847565b6001836020036101000a038019825116818451168082178552505050505050905001915050908152602001604051809103902060040190805190602001906118b3929190612374565b508060600151600582600001516040518082805190602001908083835b602083106118f357805182526020820191506020810190506020830392506118d0565b6001836020036101000a03801982511681845116808217855250505050505090500191505090815260200160405180910390206003018190555033600582600001516040518082805190602001908083835b602083106119685780518252602082019150602081019050602083039250611945565b6001836020036101000a038019825116818451168082178552505050505050905001915050908152602001604051809103902060050160006101000a81548173ffffffffffffffffffffffffffffffffffffffff021916908373ffffffffffffffffffffffffffffffffffffffff1602179055506001600582600001516040518082805190602001908083835b60208310611a1857805182526020820191506020810190506020830392506119f5565b6001836020036101000a038019825116818451168082178552505050505050905001915050908152602001604051809103902060050160146101000a81548160ff02191690831515021790555033600582600001516040518082805190602001908083835b60208310611aa05780518252602082019150602081019050602083039250611a7d565b6001836020036101000a038019825116818451168082178552505050505050905001915050908152602001604051809103902060060160006101000a81548173ffffffffffffffffffffffffffffffffffffffff021916908373ffffffffffffffffffffffffffffffffffffffff160217905550600681908060018154018082558091505090600182039060005260206000209060070201600090919290919091506000820151816000019080519060200190611b5e92919061240e565b506020820151816001019080519060200190611b7b92919061240e565b506040820151816002019080519060200190611b9892919061240e565b50606082015181600301556080820151816004019080519060200190611bbf92919061240e565b5060a08201518160050160006101000a81548173ffffffffffffffffffffffffffffffffffffffff021916908373ffffffffffffffffffffffffffffffffffffffff16021790555060c08201518160050160146101000a81548160ff02191690831515021790555060e08201518160060160006101000a81548173ffffffffffffffffffffffffffffffffffffffff021916908373ffffffffffffffffffffffffffffffffffffffff160217905550505050600160008154809291906001019190505550505050505050565b6004602052806000526040600020600091509050806000018054600181600116156101000203166002900480601f016020809104026020016040519081016040528092919081815260200182805460018160011615610100020316600290048015611d375780601f10611d0c57610100808354040283529160200191611d37565b820191906000526020600020905b815481529060010190602001808311611d1a57829003601f168201915b5050505050908060010160009054906101000a900473ffffffffffffffffffffffffffffffffffffffff16908060020154908060030160009054906101000a900460ff16905084565b6000809054906101000a900473ffffffffffffffffffffffffffffffffffffffff1681565b6007602052806000526040600020600091509050806000018054600181600116156101000203166002900480601f016020809104026020016040519081016040528092919081815260200182805460018160011615610100020316600290048015611e515780601f10611e2657610100808354040283529160200191611e51565b820191906000526020600020905b815481529060010190602001808311611e3457829003601f168201915b505050505090806001018054600181600116156101000203166002900480601f016020809104026020016040519081016040528092919081815260200182805460018160011615610100020316600290048015611eef5780601f10611ec457610100808354040283529160200191611eef565b820191906000526020600020905b815481529060010190602001808311611ed257829003601f168201915b5050505050908060020160009054906101000a900460ff16905083565b60068181548110611f1957fe5b9060005260206000209060070201600091509050806000018054600181600116156101000203166002900480601f016020809104026020016040519081016040528092919081815260200182805460018160011615610100020316600290048015611fc55780601f10611f9a57610100808354040283529160200191611fc5565b820191906000526020600020905b815481529060010190602001808311611fa857829003601f168201915b505050505090806001018054600181600116156101000203166002900480601f0160208091040260200160405190810160405280929190818152602001828054600181600116156101000203166002900480156120635780601f1061203857610100808354040283529160200191612063565b820191906000526020600020905b81548152906001019060200180831161204657829003601f168201915b505050505090806002018054600181600116156101000203166002900480601f0160208091040260200160405190810160405280929190818152602001828054600181600116156101000203166002900480156121015780601f106120d657610100808354040283529160200191612101565b820191906000526020600020905b8154815290600101906020018083116120e457829003601f168201915b505050505090806003015490806004018054600181600116156101000203166002900480601f0160208091040260200160405190810160405280929190818152602001828054600181600116156101000203166002900480156121a55780601f1061217a576101008083540402835291602001916121a5565b820191906000526020600020905b81548152906001019060200180831161218857829003601f168201915b5050505050908060050160009054906101000a900473ffffffffffffffffffffffffffffffffffffffff16908060050160149054906101000a900460ff16908060060160009054906101000a900473ffffffffffffffffffffffffffffffffffffffff16905088565b60015481565b60606000600860003373ffffffffffffffffffffffffffffffffffffffff1673ffffffffffffffffffffffffffffffffffffffff168152602001908152602001600020838154811061226257fe5b9060005260206000209060020201600001600860003373ffffffffffffffffffffffffffffffffffffffff1673ffffffffffffffffffffffffffffffffffffffff16815260200190815260200160002084815481106122bd57fe5b906000526020600020906002020160010154818054600181600116156101000203166002900480601f0160208091040260200160405190810160405280929190818152602001828054600181600116156101000203166002900480156123645780601f1061233957610100808354040283529160200191612364565b820191906000526020600020905b81548152906001019060200180831161234757829003601f168201915b5050505050915091509150915091565b828054600181600116156101000203166002900490600052602060002090601f016020900481019282601f106123b557805160ff19168380011785556123e3565b828001600101855582156123e3579182015b828111156123e25782518255916020019190600101906123c7565b5b5090506123f09190612501565b5090565b604051806040016040528060608152602001600081525090565b828054600181600116156101000203166002900490600052602060002090601f016020900481019282601f1061244f57805160ff191683800117855561247d565b8280016001018555821561247d579182015b8281111561247c578251825591602001919060010190612461565b5b50905061248a9190612501565b5090565b6040518061010001604052806060815260200160608152602001606081526020016000815260200160608152602001600073ffffffffffffffffffffffffffffffffffffffff168152602001600015158152602001600073ffffffffffffffffffffffffffffffffffffffff1681525090565b61252391905b8082111561251f576000816000905550600101612507565b5090565b9056fe56616c7565204d75737420626520457175616c20746f205072696365206f662050726f6475637450726f647563742057697468207468697320496420697320616c7265616479204163746976652e20557365206f7468657220556e697175654964a265627a7a723158201960dc6e648a067f150366a059a7882f72448b2e1c03fb91f03aa67708ceb2fc64736f6c63430005100032",
  "source": "pragma solidity ^0.5.4;\n\ncontract ecom {\n    address payable public owner;\n    uint256 public noOfProducts;\n    constructor() public {\n        owner = msg.sender;\n        noOfProducts=0;\n    }\n\n    uint256 id;\n    uint256 purchaseId;\n    struct seller {\n        string name;\n        address addr;\n        uint256 bankGuaraantee;\n        bool bgPaid;\n    }\n    struct product {\n        string productId;\n        string productName;\n        string Category;\n        uint256 price;\n        string description;\n        address payable seller;\n        bool isActive;\n\t\taddress owner;\n    }\n    struct ordersPlaced {\n        string productId;\n        uint256 purchaseId;\n        address orderedBy;\n    }\n    struct user {\n        string name;\n        string email;\n        bool isCreated;\n    }\n    struct orders {\n        string productId;\n        uint256 purchaseId;\n    }\n    mapping(address => seller) public sellers;\n    mapping(string => product) products;\n    product[] public allProducts;\n\n    mapping(address => user) public users;\n    mapping(address => orders[]) userOrders;\n\n    function sellerSignUp(string memory _name) public payable {\n        require(!sellers[msg.sender].bgPaid, \"You are Already Registered\");\n        require(msg.value == 5 ether, \"Bank Guarantee of 5ETH Required\");\n        owner.transfer(msg.value);\n        sellers[msg.sender].name = _name;\n        sellers[msg.sender].addr = msg.sender;\n        sellers[msg.sender].bankGuaraantee = msg.value;\n        sellers[msg.sender].bgPaid = true;\n    }\n\n    function createAccount(\n        string memory _name,\n        string memory _email\n    ) public {\n        users[msg.sender].name = _name;\n        users[msg.sender].email = _email;\n        users[msg.sender].isCreated = true;\n    }\n\n    function buyProduct(string memory _productId) public payable {\n        require(\n            msg.value == products[_productId].price,\n            \"Value Must be Equal to Price of Product\"\n        );\n        require(users[msg.sender].isCreated, \"You Must Be Registered to Buy\");\n\n        products[_productId].seller.transfer(msg.value);\n\n        purchaseId = id++;\n        orders memory order = orders(\n            _productId,\n            purchaseId\n        );\n        userOrders[msg.sender].push(order);\n        products[_productId].owner = msg.sender;\n        products[_productId].isActive = false;\n        \n    }\n\n    function addProduct(\n        string memory _productId,\n        string memory _productName,\n        string memory _category,\n        uint256 _price,\n        string memory _description\n    ) public {\n        require(sellers[msg.sender].bgPaid, \"You are not Registered as Seller\");\n        require(\n            !products[_productId].isActive,\n            \"Product With this Id is already Active. Use other UniqueId\"\n        );\n\n        product memory productInstace = product(\n            _productId,\n            _productName,\n            _category,\n            _price,\n            _description,\n            msg.sender,\n            true,\n\t\t\tmsg.sender\n        );\n        products[productInstace.productId].productId = productInstace.productId;\n        products[productInstace.productId].productName = productInstace.productName;\n        products[productInstace.productId].Category = productInstace.Category;\n        products[productInstace.productId].description = productInstace.description;\n        products[productInstace.productId].price = productInstace.price;\n        products[productInstace.productId].seller = msg.sender;\n        products[productInstace.productId].isActive = true;\n\t\tproducts[productInstace.productId].owner = msg.sender;\n        allProducts.push(productInstace);\n        noOfProducts++;\n    }\n\n    function myOrders(uint256 _index)\n        public\n        view\n        returns(string memory, uint)\n    {\n        return (userOrders[msg.sender][_index].productId, userOrders[msg.sender][_index].purchaseId);\n    }\n}\n",
  "sourcePath": "/Users/akhil/Desktop/d-e-app/contracts/ecom.sol",
  "compiler": {
    "name": "solc",
    "version": "0.5.16+commit.9c3226ce.Emscripten.clang"
  },
  "schemaVersion": "3.4.4",
  "updatedAt": "2022-04-18T23:41:35.716Z",
  "networkType": "ethereum",
  "devdoc": {
    "methods": {}
  },
  "userdoc": {
    "methods": {}
  }
}