{
  "contractName": "NFTMarket",
  "abi": [
    {
      "inputs": [],
      "stateMutability": "nonpayable",
      "type": "constructor"
    },
    {
      "anonymous": false,
      "inputs": [
        {
          "indexed": true,
          "internalType": "uint256",
          "name": "itemId",
          "type": "uint256"
        },
        {
          "indexed": true,
          "internalType": "address",
          "name": "nftContract",
          "type": "address"
        },
        {
          "indexed": true,
          "internalType": "uint256",
          "name": "tokenId",
          "type": "uint256"
        },
        {
          "indexed": false,
          "internalType": "address",
          "name": "seller",
          "type": "address"
        },
        {
          "indexed": false,
          "internalType": "address",
          "name": "owner",
          "type": "address"
        },
        {
          "indexed": false,
          "internalType": "uint256",
          "name": "price",
          "type": "uint256"
        }
      ],
      "name": "MarketItemCreated",
      "type": "event"
    },
    {
      "inputs": [
        {
          "internalType": "address",
          "name": "nftContract",
          "type": "address"
        },
        {
          "internalType": "uint256",
          "name": "tokenId",
          "type": "uint256"
        },
        {
          "internalType": "uint256",
          "name": "price",
          "type": "uint256"
        }
      ],
      "name": "createMarketItem",
      "outputs": [],
      "stateMutability": "payable",
      "type": "function",
      "payable": true
    },
    {
      "inputs": [
        {
          "internalType": "address",
          "name": "nftContract",
          "type": "address"
        },
        {
          "internalType": "uint256",
          "name": "itemId",
          "type": "uint256"
        }
      ],
      "name": "createMarketSale",
      "outputs": [],
      "stateMutability": "payable",
      "type": "function",
      "payable": true
    },
    {
      "inputs": [],
      "name": "fetchMarketItems",
      "outputs": [
        {
          "components": [
            {
              "internalType": "uint256",
              "name": "itemId",
              "type": "uint256"
            },
            {
              "internalType": "address",
              "name": "nftContract",
              "type": "address"
            },
            {
              "internalType": "uint256",
              "name": "tokenId",
              "type": "uint256"
            },
            {
              "internalType": "address payable",
              "name": "seller",
              "type": "address"
            },
            {
              "internalType": "address payable",
              "name": "owner",
              "type": "address"
            },
            {
              "internalType": "uint256",
              "name": "price",
              "type": "uint256"
            }
          ],
          "internalType": "struct NFTMarket.MarketItem[]",
          "name": "",
          "type": "tuple[]"
        }
      ],
      "stateMutability": "view",
      "type": "function",
      "constant": true
    },
    {
      "inputs": [],
      "name": "fetchMyNFTs",
      "outputs": [
        {
          "components": [
            {
              "internalType": "uint256",
              "name": "itemId",
              "type": "uint256"
            },
            {
              "internalType": "address",
              "name": "nftContract",
              "type": "address"
            },
            {
              "internalType": "uint256",
              "name": "tokenId",
              "type": "uint256"
            },
            {
              "internalType": "address payable",
              "name": "seller",
              "type": "address"
            },
            {
              "internalType": "address payable",
              "name": "owner",
              "type": "address"
            },
            {
              "internalType": "uint256",
              "name": "price",
              "type": "uint256"
            }
          ],
          "internalType": "struct NFTMarket.MarketItem[]",
          "name": "",
          "type": "tuple[]"
        }
      ],
      "stateMutability": "view",
      "type": "function",
      "constant": true
    }
  ],
  "bytecode": "0x6080604052670de0b6b3a764000060045534801561001c57600080fd5b50600160008190555033600360006101000a81548173ffffffffffffffffffffffffffffffffffffffff021916908373ffffffffffffffffffffffffffffffffffffffff16021790555061140a806100756000396000f3fe60806040526004361061003f5760003560e01c80630f08efe014610044578063202e37401461006f57806358eb2df51461009a578063c23b139e146100b6575b600080fd5b34801561005057600080fd5b506100596100d2565b6040516100669190610eda565b60405180910390f35b34801561007b57600080fd5b5061008461038e565b6040516100919190610eda565b60405180910390f35b6100b460048036038101906100af9190610f59565b6106d7565b005b6100d060048036038101906100cb9190610fac565b610a0f565b005b606060006100e06001610c99565b905060006100ee6002610c99565b826100f9919061101b565b90506000808267ffffffffffffffff8111156101185761011761104f565b5b60405190808252806020026020018201604052801561015157816020015b61013e610cbd565b8152602001906001900390816101365790505b50905060005b8481101561038357600073ffffffffffffffffffffffffffffffffffffffff1660056000600184610188919061107e565b815260200190815260200160002060040160009054906101000a900473ffffffffffffffffffffffffffffffffffffffff1673ffffffffffffffffffffffffffffffffffffffff161415610370576000600560006001846101e9919061107e565b81526020019081526020016000206000015490506000600560008381526020019081526020016000209050806040518060c0016040529081600082015481526020016001820160009054906101000a900473ffffffffffffffffffffffffffffffffffffffff1673ffffffffffffffffffffffffffffffffffffffff1673ffffffffffffffffffffffffffffffffffffffff168152602001600282015481526020016003820160009054906101000a900473ffffffffffffffffffffffffffffffffffffffff1673ffffffffffffffffffffffffffffffffffffffff1673ffffffffffffffffffffffffffffffffffffffff1681526020016004820160009054906101000a900473ffffffffffffffffffffffffffffffffffffffff1673ffffffffffffffffffffffffffffffffffffffff1673ffffffffffffffffffffffffffffffffffffffff168152602001600582015481525050848681518110610353576103526110d4565b5b602002602001018190525060018561036b919061107e565b945050505b808061037b90611103565b915050610157565b508094505050505090565b6060600061039c6001610c99565b905060008060005b83811015610445573373ffffffffffffffffffffffffffffffffffffffff16600560006001846103d4919061107e565b815260200190815260200160002060040160009054906101000a900473ffffffffffffffffffffffffffffffffffffffff1673ffffffffffffffffffffffffffffffffffffffff1614156104325760018361042f919061107e565b92505b808061043d90611103565b9150506103a4565b5060008267ffffffffffffffff8111156104625761046161104f565b5b60405190808252806020026020018201604052801561049b57816020015b610488610cbd565b8152602001906001900390816104805790505b50905060005b848110156106cc573373ffffffffffffffffffffffffffffffffffffffff16600560006001846104d1919061107e565b815260200190815260200160002060040160009054906101000a900473ffffffffffffffffffffffffffffffffffffffff1673ffffffffffffffffffffffffffffffffffffffff1614156106b957600060056000600184610532919061107e565b81526020019081526020016000206000015490506000600560008381526020019081526020016000209050806040518060c0016040529081600082015481526020016001820160009054906101000a900473ffffffffffffffffffffffffffffffffffffffff1673ffffffffffffffffffffffffffffffffffffffff1673ffffffffffffffffffffffffffffffffffffffff168152602001600282015481526020016003820160009054906101000a900473ffffffffffffffffffffffffffffffffffffffff1673ffffffffffffffffffffffffffffffffffffffff1673ffffffffffffffffffffffffffffffffffffffff1681526020016004820160009054906101000a900473ffffffffffffffffffffffffffffffffffffffff1673ffffffffffffffffffffffffffffffffffffffff1673ffffffffffffffffffffffffffffffffffffffff16815260200160058201548152505084868151811061069c5761069b6110d4565b5b60200260200101819052506001856106b4919061107e565b945050505b80806106c490611103565b9150506104a1565b508094505050505090565b6002600054141561071d576040517f08c379a0000000000000000000000000000000000000000000000000000000008152600401610714906111a9565b60405180910390fd5b600260008190555060008111610768576040517f08c379a000000000000000000000000000000000000000000000000000000000815260040161075f9061123b565b60405180910390fd5b60045434146107ac576040517f08c379a00000000000000000000000000000000000000000000000000000000081526004016107a3906112cd565b60405180910390fd5b6107b66001610ca7565b60006107c26001610c99565b90506040518060c001604052808281526020018573ffffffffffffffffffffffffffffffffffffffff1681526020018481526020013373ffffffffffffffffffffffffffffffffffffffff168152602001600073ffffffffffffffffffffffffffffffffffffffff16815260200183815250600560008381526020019081526020016000206000820151816000015560208201518160010160006101000a81548173ffffffffffffffffffffffffffffffffffffffff021916908373ffffffffffffffffffffffffffffffffffffffff1602179055506040820151816002015560608201518160030160006101000a81548173ffffffffffffffffffffffffffffffffffffffff021916908373ffffffffffffffffffffffffffffffffffffffff16021790555060808201518160040160006101000a81548173ffffffffffffffffffffffffffffffffffffffff021916908373ffffffffffffffffffffffffffffffffffffffff16021790555060a082015181600501559050508373ffffffffffffffffffffffffffffffffffffffff166323b872dd3330866040518463ffffffff1660e01b815260040161097a9392919061130b565b600060405180830381600087803b15801561099457600080fd5b505af11580156109a8573d6000803e3d6000fd5b50505050828473ffffffffffffffffffffffffffffffffffffffff16827f2ad024d53a0dc50c130967f8d4941927ee087ea31394cebb2b9599d3706c9c00336000876040516109f99392919061130b565b60405180910390a4506001600081905550505050565b60026000541415610a55576040517f08c379a0000000000000000000000000000000000000000000000000000000008152600401610a4c906111a9565b60405180910390fd5b6002600081905550600060056000838152602001908152602001600020600501549050600060056000848152602001908152602001600020600201549050813414610ad5576040517f08c379a0000000000000000000000000000000000000000000000000000000008152600401610acc906113b4565b60405180910390fd5b6005600084815260200190815260200160002060030160009054906101000a900473ffffffffffffffffffffffffffffffffffffffff1673ffffffffffffffffffffffffffffffffffffffff166108fc349081150290604051600060405180830381858888f19350505050158015610b51573d6000803e3d6000fd5b508373ffffffffffffffffffffffffffffffffffffffff166323b872dd3033846040518463ffffffff1660e01b8152600401610b8f9392919061130b565b600060405180830381600087803b158015610ba957600080fd5b505af1158015610bbd573d6000803e3d6000fd5b50505050336005600085815260200190815260200160002060040160006101000a81548173ffffffffffffffffffffffffffffffffffffffff021916908373ffffffffffffffffffffffffffffffffffffffff160217905550610c206002610ca7565b600360009054906101000a900473ffffffffffffffffffffffffffffffffffffffff1673ffffffffffffffffffffffffffffffffffffffff166108fc6004549081150290604051600060405180830381858888f19350505050158015610c8a573d6000803e3d6000fd5b50505060016000819055505050565b600081600001549050919050565b6001816000016000828254019250508190555050565b6040518060c0016040528060008152602001600073ffffffffffffffffffffffffffffffffffffffff16815260200160008152602001600073ffffffffffffffffffffffffffffffffffffffff168152602001600073ffffffffffffffffffffffffffffffffffffffff168152602001600081525090565b600081519050919050565b600082825260208201905092915050565b6000819050602082019050919050565b6000819050919050565b610d7481610d61565b82525050565b600073ffffffffffffffffffffffffffffffffffffffff82169050919050565b6000610da582610d7a565b9050919050565b610db581610d9a565b82525050565b6000610dc682610d7a565b9050919050565b610dd681610dbb565b82525050565b60c082016000820151610df26000850182610d6b565b506020820151610e056020850182610dac565b506040820151610e186040850182610d6b565b506060820151610e2b6060850182610dcd565b506080820151610e3e6080850182610dcd565b5060a0820151610e5160a0850182610d6b565b50505050565b6000610e638383610ddc565b60c08301905092915050565b6000602082019050919050565b6000610e8782610d35565b610e918185610d40565b9350610e9c83610d51565b8060005b83811015610ecd578151610eb48882610e57565b9750610ebf83610e6f565b925050600181019050610ea0565b5085935050505092915050565b60006020820190508181036000830152610ef48184610e7c565b905092915050565b600080fd5b610f0a81610d9a565b8114610f1557600080fd5b50565b600081359050610f2781610f01565b92915050565b610f3681610d61565b8114610f4157600080fd5b50565b600081359050610f5381610f2d565b92915050565b600080600060608486031215610f7257610f71610efc565b5b6000610f8086828701610f18565b9350506020610f9186828701610f44565b9250506040610fa286828701610f44565b9150509250925092565b60008060408385031215610fc357610fc2610efc565b5b6000610fd185828601610f18565b9250506020610fe285828601610f44565b9150509250929050565b7f4e487b7100000000000000000000000000000000000000000000000000000000600052601160045260246000fd5b600061102682610d61565b915061103183610d61565b92508282101561104457611043610fec565b5b828203905092915050565b7f4e487b7100000000000000000000000000000000000000000000000000000000600052604160045260246000fd5b600061108982610d61565b915061109483610d61565b9250827fffffffffffffffffffffffffffffffffffffffffffffffffffffffffffffffff038211156110c9576110c8610fec565b5b828201905092915050565b7f4e487b7100000000000000000000000000000000000000000000000000000000600052603260045260246000fd5b600061110e82610d61565b91507fffffffffffffffffffffffffffffffffffffffffffffffffffffffffffffffff82141561114157611140610fec565b5b600182019050919050565b600082825260208201905092915050565b7f5265656e7472616e637947756172643a207265656e7472616e742063616c6c00600082015250565b6000611193601f8361114c565b915061119e8261115d565b602082019050919050565b600060208201905081810360008301526111c281611186565b9050919050565b7f5072696365206d757374206265206174206c656173742031207765692c20637560008201527f7272656e7420697473203a000000000000000000000000000000000000000000602082015250565b6000611225602b8361114c565b9150611230826111c9565b604082019050919050565b6000602082019050818103600083015261125481611218565b9050919050565b7f5072696365206d75737420626520657175616c20746f206c697374696e67207060008201527f7269636500000000000000000000000000000000000000000000000000000000602082015250565b60006112b760248361114c565b91506112c28261125b565b604082019050919050565b600060208201905081810360008301526112e6816112aa565b9050919050565b6112f681610d9a565b82525050565b61130581610d61565b82525050565b600060608201905061132060008301866112ed565b61132d60208301856112ed565b61133a60408301846112fc565b949350505050565b7f506c65617365207375626d6974207468652061736b696e67207072696365206960008201527f6e206f7264657220746f20636f6d706c65746520746865207075726368617365602082015250565b600061139e60408361114c565b91506113a982611342565b604082019050919050565b600060208201905081810360008301526113cd81611391565b905091905056fea264697066735822122018de33692ee570e26398b7176429dc8f05af34ea3a0013610940bc522e4bdf9764736f6c634300080b0033",
  "immutableReferences": {},
  "source": "pragma solidity ^0.8.3;\n\nimport \"@openzeppelin/contracts/token/ERC721/ERC721.sol\";\nimport \"@openzeppelin/contracts/token/ERC721/extensions/ERC721URIStorage.sol\";\nimport \"@openzeppelin/contracts/utils/Counters.sol\";\nimport \"@openzeppelin/contracts/security/ReentrancyGuard.sol\";\n// import \"truffle/Console.sol\";\ncontract NFTMarket is ReentrancyGuard {\n    using Counters for Counters.Counter;\n    Counters.Counter private _itemIds;\n    Counters.Counter private _itemsSold;\n\n    address payable owner;\n    uint256 listingPrice = 1 ether;\n\n    constructor() {\n        owner = payable(msg.sender);\n    }\n    struct  MarketItem {\n        uint itemId;\n        address nftContract;\n        uint256 tokenId;\n        address payable seller;\n        address payable owner;\n        uint256 price;\n    }\n\n    mapping(uint256 => MarketItem) private idToMarketItem;\n\n    event MarketItemCreated (\n        uint indexed itemId,\n        address indexed nftContract,\n        uint256 indexed tokenId,\n        address seller,\n        address owner,\n        uint256 price\n    );\n\n    function createMarketItem(\n        address nftContract,\n        uint256 tokenId,\n        uint256 price\n    ) public payable nonReentrant {\n        // Console.log(price);\n        require(price > 0, \"Price must be at least 1 wei, current its :\");\n        require(msg.value == listingPrice, \"Price must be equal to listing price\");\n\n        _itemIds.increment();\n        uint256 itemId = _itemIds.current();\n        idToMarketItem[itemId] = MarketItem(\n            itemId,\n            nftContract,\n            tokenId,\n            payable(msg.sender),\n            payable(address(0)),\n            price\n        );\n\n        IERC721(nftContract).transferFrom(msg.sender, address(this), tokenId);\n\n        emit MarketItemCreated(\n            itemId,\n            nftContract,\n            tokenId,\n            msg.sender,\n            address(0),\n            price\n        );\n    }\n\n    function createMarketSale(\n            address nftContract,\n            uint256 itemId\n        ) public payable nonReentrant {\n            uint price = idToMarketItem[itemId].price;\n            uint tokenId = idToMarketItem[itemId].tokenId;\n            require(msg.value == price, \"Please submit the asking price in order to complete the purchase\");\n            idToMarketItem[itemId].seller.transfer(msg.value);\n            IERC721(nftContract).transferFrom(address(this), msg.sender, tokenId);\n            idToMarketItem[itemId].owner = payable(msg.sender);\n            _itemsSold.increment();\n            payable(owner).transfer(listingPrice);\n        }\n    \n    function fetchMarketItems() public view returns (MarketItem[] memory) {\n        uint itemCount = _itemIds.current();\n        uint unsoldItmeCount = itemCount - _itemsSold.current();\n        uint currentIndex = 0;\n\n        MarketItem[] memory items = new MarketItem[](unsoldItmeCount);\n        for(uint i = 0; i<itemCount ; i++) {\n            if(idToMarketItem[i+1].owner == address(0)) {\n                uint currentId = idToMarketItem[i+1].itemId;\n                MarketItem storage currentItem = idToMarketItem[currentId];\n                items[currentIndex] = currentItem;\n                currentIndex += 1;\n            }\n        }\n        return items;\n    }\n\n    function fetchMyNFTs() public view returns (MarketItem[] memory) {\n        uint totalItemCount = _itemIds.current();\n        uint itemCount = 0;\n        uint currentIndex = 0;\n\n        for(uint i=0;i< totalItemCount;i++) {\n            if(idToMarketItem[i+1].owner == msg.sender) {\n                itemCount += 1;\n            }\n        }\n\n        MarketItem[] memory items = new MarketItem[](itemCount);\n        for(uint i=0;i<totalItemCount;i++) {\n            if(idToMarketItem[i+1].owner == msg.sender) {\n                uint currentId = idToMarketItem[i+1].itemId;\n                MarketItem storage currentItem = idToMarketItem[currentId];\n                items[currentIndex] = currentItem;\n                currentIndex +=1;\n            }\n        }\n        return items;\n    }\n}",
  "sourcePath": "/Users/akhil/Documents/DApps/d-e-app/contracts/NFTMarket.sol",
  "compiler": {
    "name": "solc",
    "version": "0.8.11+commit.d7f03943.Emscripten.clang"
  },
  "schemaVersion": "3.3.3",
  "updatedAt": "2022-04-11T00:22:57.031Z",
  "networkType": "ethereum",
  "devdoc": {
    "kind": "dev",
    "methods": {},
    "version": 1
  },
  "userdoc": {
    "kind": "user",
    "methods": {},
    "version": 1
  }
}