{
  "contractName": "shoppy",
  "abi": [
    {
      "inputs": [],
      "payable": false,
      "stateMutability": "nonpayable",
      "type": "constructor"
    },
    {
      "constant": true,
      "inputs": [
        {
          "internalType": "uint256",
          "name": "",
          "type": "uint256"
        }
      ],
      "name": "allProducts",
      "outputs": [
        {
          "internalType": "string",
          "name": "",
          "type": "string"
        }
      ],
      "payable": false,
      "stateMutability": "view",
      "type": "function"
    },
    {
      "constant": true,
      "inputs": [],
      "name": "owner",
      "outputs": [
        {
          "internalType": "address payable",
          "name": "",
          "type": "address"
        }
      ],
      "payable": false,
      "stateMutability": "view",
      "type": "function"
    },
    {
      "constant": true,
      "inputs": [
        {
          "internalType": "address",
          "name": "",
          "type": "address"
        }
      ],
      "name": "sellers",
      "outputs": [
        {
          "internalType": "string",
          "name": "name",
          "type": "string"
        },
        {
          "internalType": "address",
          "name": "addr",
          "type": "address"
        },
        {
          "internalType": "uint256",
          "name": "bankGuaraantee",
          "type": "uint256"
        },
        {
          "internalType": "bool",
          "name": "bgPaid",
          "type": "bool"
        }
      ],
      "payable": false,
      "stateMutability": "view",
      "type": "function"
    },
    {
      "constant": false,
      "inputs": [
        {
          "internalType": "string",
          "name": "_name",
          "type": "string"
        }
      ],
      "name": "sellerSignUp",
      "outputs": [],
      "payable": true,
      "stateMutability": "payable",
      "type": "function"
    },
    {
      "constant": false,
      "inputs": [
        {
          "internalType": "string",
          "name": "_name",
          "type": "string"
        },
        {
          "internalType": "string",
          "name": "_email",
          "type": "string"
        },
        {
          "internalType": "string",
          "name": "_deliveryAddress",
          "type": "string"
        }
      ],
      "name": "createAccount",
      "outputs": [],
      "payable": false,
      "stateMutability": "nonpayable",
      "type": "function"
    },
    {
      "constant": false,
      "inputs": [
        {
          "internalType": "string",
          "name": "_productId",
          "type": "string"
        }
      ],
      "name": "buyProduct",
      "outputs": [],
      "payable": true,
      "stateMutability": "payable",
      "type": "function"
    },
    {
      "constant": false,
      "inputs": [
        {
          "internalType": "string",
          "name": "_productId",
          "type": "string"
        },
        {
          "internalType": "string",
          "name": "_productName",
          "type": "string"
        },
        {
          "internalType": "string",
          "name": "_category",
          "type": "string"
        },
        {
          "internalType": "uint256",
          "name": "_price",
          "type": "uint256"
        },
        {
          "internalType": "string",
          "name": "_description",
          "type": "string"
        }
      ],
      "name": "addProduct",
      "outputs": [],
      "payable": false,
      "stateMutability": "nonpayable",
      "type": "function"
    },
    {
      "constant": true,
      "inputs": [
        {
          "internalType": "uint256",
          "name": "_index",
          "type": "uint256"
        }
      ],
      "name": "myOrders",
      "outputs": [
        {
          "internalType": "string",
          "name": "",
          "type": "string"
        },
        {
          "internalType": "uint256",
          "name": "",
          "type": "uint256"
        }
      ],
      "payable": false,
      "stateMutability": "view",
      "type": "function"
    }
  ],
  "bytecode": "0x608060405234801561001057600080fd5b50336000806101000a81548173ffffffffffffffffffffffffffffffffffffffff021916908373ffffffffffffffffffffffffffffffffffffffff160217905550611e06806100606000396000f3fe60806040526004361061007b5760003560e01c80638da5cb5b1161004e5780638da5cb5b1461059c578063bc53c0c4146105f3578063cfaaef56146107e9578063fd6141de1461089d5761007b565b80631e1cdf6c14610080578063364e022f1461013b5780636d29d972146101f65780636d47ab721461048d575b600080fd5b6101396004803603602081101561009657600080fd5b81019080803590602001906401000000008111156100b357600080fd5b8201836020820111156100c557600080fd5b803590602001918460018302840111640100000000831117156100e757600080fd5b91908080601f016020809104026020016040519081016040528093929190818152602001838380828437600081840152601f19601f820116905080830192505050505050509192919290505050610958565b005b6101f46004803603602081101561015157600080fd5b810190808035906020019064010000000081111561016e57600080fd5b82018360208201111561018057600080fd5b803590602001918460018302840111640100000000831117156101a257600080fd5b91908080601f016020809104026020016040519081016040528093929190818152602001838380828437600081840152601f19601f820116905080830192505050505050509192919290505050610c7d565b005b34801561020257600080fd5b5061048b600480360360a081101561021957600080fd5b810190808035906020019064010000000081111561023657600080fd5b82018360208201111561024857600080fd5b8035906020019184600183028401116401000000008311171561026a57600080fd5b91908080601f016020809104026020016040519081016040528093929190818152602001838380828437600081840152601f19601f820116905080830192505050505050509192919290803590602001906401000000008111156102cd57600080fd5b8201836020820111156102df57600080fd5b8035906020019184600183028401116401000000008311171561030157600080fd5b91908080601f016020809104026020016040519081016040528093929190818152602001838380828437600081840152601f19601f8201169050808301925050505050505091929192908035906020019064010000000081111561036457600080fd5b82018360208201111561037657600080fd5b8035906020019184600183028401116401000000008311171561039857600080fd5b91908080601f016020809104026020016040519081016040528093929190818152602001838380828437600081840152601f19601f820116905080830192505050505050509192919290803590602001909291908035906020019064010000000081111561040557600080fd5b82018360208201111561041757600080fd5b8035906020019184600183028401116401000000008311171561043957600080fd5b91908080601f016020809104026020016040519081016040528093929190818152602001838380828437600081840152601f19601f820116905080830192505050505050509192919290505050611052565b005b34801561049957600080fd5b506104dc600480360360208110156104b057600080fd5b81019080803573ffffffffffffffffffffffffffffffffffffffff169060200190929190505050611726565b60405180806020018573ffffffffffffffffffffffffffffffffffffffff1673ffffffffffffffffffffffffffffffffffffffff16815260200184815260200183151515158152602001828103825286818151815260200191508051906020019080838360005b8381101561055e578082015181840152602081019050610543565b50505050905090810190601f16801561058b5780820380516001836020036101000a031916815260200191505b509550505050505060405180910390f35b3480156105a857600080fd5b506105b161181b565b604051808273ffffffffffffffffffffffffffffffffffffffff1673ffffffffffffffffffffffffffffffffffffffff16815260200191505060405180910390f35b3480156105ff57600080fd5b506107e76004803603606081101561061657600080fd5b810190808035906020019064010000000081111561063357600080fd5b82018360208201111561064557600080fd5b8035906020019184600183028401116401000000008311171561066757600080fd5b91908080601f016020809104026020016040519081016040528093929190818152602001838380828437600081840152601f19601f820116905080830192505050505050509192919290803590602001906401000000008111156106ca57600080fd5b8201836020820111156106dc57600080fd5b803590602001918460018302840111640100000000831117156106fe57600080fd5b91908080601f016020809104026020016040519081016040528093929190818152602001838380828437600081840152601f19601f8201169050808301925050505050505091929192908035906020019064010000000081111561076157600080fd5b82018360208201111561077357600080fd5b8035906020019184600183028401116401000000008311171561079557600080fd5b91908080601f016020809104026020016040519081016040528093929190818152602001838380828437600081840152601f19601f820116905080830192505050505050509192919290505050611840565b005b3480156107f557600080fd5b506108226004803603602081101561080c57600080fd5b81019080803590602001909291905050506119a5565b6040518080602001828103825283818151815260200191508051906020019080838360005b83811015610862578082015181840152602081019050610847565b50505050905090810190601f16801561088f5780820380516001836020036101000a031916815260200191505b509250505060405180910390f35b3480156108a957600080fd5b506108d6600480360360208110156108c057600080fd5b8101908080359060200190929190505050611a5e565b6040518080602001838152602001828103825284818151815260200191508051906020019080838360005b8381101561091c578082015181840152602081019050610901565b50505050905090810190601f1680156109495780820380516001836020036101000a031916815260200191505b50935050505060405180910390f35b600360003373ffffffffffffffffffffffffffffffffffffffff1673ffffffffffffffffffffffffffffffffffffffff16815260200190815260200160002060030160009054906101000a900460ff1615610a1b576040517f08c379a000000000000000000000000000000000000000000000000000000000815260040180806020018281038252601a8152602001807f596f752061726520416c7265616479205265676973746572656400000000000081525060200191505060405180910390fd5b674563918244f400003414610a98576040517f08c379a000000000000000000000000000000000000000000000000000000000815260040180806020018281038252601f8152602001807f42616e6b2047756172616e746565206f6620354554482052657175697265640081525060200191505060405180910390fd5b6000809054906101000a900473ffffffffffffffffffffffffffffffffffffffff1673ffffffffffffffffffffffffffffffffffffffff166108fc349081150290604051600060405180830381858888f19350505050158015610aff573d6000803e3d6000fd5b5080600360003373ffffffffffffffffffffffffffffffffffffffff1673ffffffffffffffffffffffffffffffffffffffff1681526020019081526020016000206000019080519060200190610b56929190611bbe565b5033600360003373ffffffffffffffffffffffffffffffffffffffff1673ffffffffffffffffffffffffffffffffffffffff16815260200190815260200160002060010160006101000a81548173ffffffffffffffffffffffffffffffffffffffff021916908373ffffffffffffffffffffffffffffffffffffffff16021790555034600360003373ffffffffffffffffffffffffffffffffffffffff1673ffffffffffffffffffffffffffffffffffffffff168152602001908152602001600020600201819055506001600360003373ffffffffffffffffffffffffffffffffffffffff1673ffffffffffffffffffffffffffffffffffffffff16815260200190815260200160002060030160006101000a81548160ff02191690831515021790555050565b6004816040518082805190602001908083835b60208310610cb35780518252602082019150602081019050602083039250610c90565b6001836020036101000a0380198251168184511680821785525050505050509050019150509081526020016040518091039020600301543414610d41576040517f08c379a0000000000000000000000000000000000000000000000000000000008152600401808060200182810382526027815260200180611d716027913960400191505060405180910390fd5b600660003373ffffffffffffffffffffffffffffffffffffffff1673ffffffffffffffffffffffffffffffffffffffff16815260200190815260200160002060030160009054906101000a900460ff16610e03576040517f08c379a000000000000000000000000000000000000000000000000000000000815260040180806020018281038252601d8152602001807f596f75204d757374204265205265676973746572656420746f2042757900000081525060200191505060405180910390fd5b6004816040518082805190602001908083835b60208310610e395780518252602082019150602081019050602083039250610e16565b6001836020036101000a038019825116818451168082178552505050505050905001915050908152602001604051809103902060050160009054906101000a900473ffffffffffffffffffffffffffffffffffffffff1673ffffffffffffffffffffffffffffffffffffffff166108fc349081150290604051600060405180830381858888f19350505050158015610ed5573d6000803e3d6000fd5b506001600081548092919060010191905055600281905550610ef5611c3e565b60405180604001604052808381526020016002548152509050600760003373ffffffffffffffffffffffffffffffffffffffff1673ffffffffffffffffffffffffffffffffffffffff16815260200190815260200160002081908060018154018082558091505090600182039060005260206000209060020201600090919290919091506000820151816000019080519060200190610f95929190611c58565b5060208201518160010155505050336004836040518082805190602001908083835b60208310610fda5780518252602082019150602081019050602083039250610fb7565b6001836020036101000a038019825116818451168082178552505050505050905001915050908152602001604051809103902060060160006101000a81548173ffffffffffffffffffffffffffffffffffffffff021916908373ffffffffffffffffffffffffffffffffffffffff1602179055505050565b600360003373ffffffffffffffffffffffffffffffffffffffff1673ffffffffffffffffffffffffffffffffffffffff16815260200190815260200160002060030160009054906101000a900460ff16611114576040517f08c379a00000000000000000000000000000000000000000000000000000000081526004018080602001828103825260208152602001807f596f7520617265206e6f7420526567697374657265642061732053656c6c657281525060200191505060405180910390fd5b6004856040518082805190602001908083835b6020831061114a5780518252602082019150602081019050602083039250611127565b6001836020036101000a038019825116818451168082178552505050505050905001915050908152602001604051809103902060050160149054906101000a900460ff16156111e4576040517f08c379a000000000000000000000000000000000000000000000000000000000815260040180806020018281038252603a815260200180611d98603a913960400191505060405180910390fd5b6111ec611cd8565b6040518061010001604052808781526020018681526020018581526020018481526020018381526020013373ffffffffffffffffffffffffffffffffffffffff1681526020016001151581526020013373ffffffffffffffffffffffffffffffffffffffff1681525090508060000151600482600001516040518082805190602001908083835b602083106112965780518252602082019150602081019050602083039250611273565b6001836020036101000a038019825116818451168082178552505050505050905001915050908152602001604051809103902060000190805190602001906112df929190611bbe565b508060200151600482600001516040518082805190602001908083835b6020831061131f57805182526020820191506020810190506020830392506112fc565b6001836020036101000a03801982511681845116808217855250505050505090500191505090815260200160405180910390206001019080519060200190611368929190611bbe565b508060400151600482600001516040518082805190602001908083835b602083106113a85780518252602082019150602081019050602083039250611385565b6001836020036101000a038019825116818451168082178552505050505050905001915050908152602001604051809103902060020190805190602001906113f1929190611bbe565b508060800151600482600001516040518082805190602001908083835b60208310611431578051825260208201915060208101905060208303925061140e565b6001836020036101000a0380198251168184511680821785525050505050509050019150509081526020016040518091039020600401908051906020019061147a929190611bbe565b508060600151600482600001516040518082805190602001908083835b602083106114ba5780518252602082019150602081019050602083039250611497565b6001836020036101000a03801982511681845116808217855250505050505090500191505090815260200160405180910390206003018190555033600482600001516040518082805190602001908083835b6020831061152f578051825260208201915060208101905060208303925061150c565b6001836020036101000a038019825116818451168082178552505050505050905001915050908152602001604051809103902060050160006101000a81548173ffffffffffffffffffffffffffffffffffffffff021916908373ffffffffffffffffffffffffffffffffffffffff1602179055506001600482600001516040518082805190602001908083835b602083106115df57805182526020820191506020810190506020830392506115bc565b6001836020036101000a038019825116818451168082178552505050505050905001915050908152602001604051809103902060050160146101000a81548160ff02191690831515021790555033600482600001516040518082805190602001908083835b602083106116675780518252602082019150602081019050602083039250611644565b6001836020036101000a038019825116818451168082178552505050505050905001915050908152602001604051809103902060060160006101000a81548173ffffffffffffffffffffffffffffffffffffffff021916908373ffffffffffffffffffffffffffffffffffffffff16021790555060058160000151908060018154018082558091505090600182039060005260206000200160009091929091909150908051906020019061171c929190611bbe565b5050505050505050565b6003602052806000526040600020600091509050806000018054600181600116156101000203166002900480601f0160208091040260200160405190810160405280929190818152602001828054600181600116156101000203166002900480156117d25780601f106117a7576101008083540402835291602001916117d2565b820191906000526020600020905b8154815290600101906020018083116117b557829003601f168201915b5050505050908060010160009054906101000a900473ffffffffffffffffffffffffffffffffffffffff16908060020154908060030160009054906101000a900460ff16905084565b6000809054906101000a900473ffffffffffffffffffffffffffffffffffffffff1681565b82600660003373ffffffffffffffffffffffffffffffffffffffff1673ffffffffffffffffffffffffffffffffffffffff1681526020019081526020016000206000019080519060200190611896929190611bbe565b5081600660003373ffffffffffffffffffffffffffffffffffffffff1673ffffffffffffffffffffffffffffffffffffffff16815260200190815260200160002060010190805190602001906118ed929190611bbe565b5080600660003373ffffffffffffffffffffffffffffffffffffffff1673ffffffffffffffffffffffffffffffffffffffff1681526020019081526020016000206002019080519060200190611944929190611bbe565b506001600660003373ffffffffffffffffffffffffffffffffffffffff1673ffffffffffffffffffffffffffffffffffffffff16815260200190815260200160002060030160006101000a81548160ff021916908315150217905550505050565b600581815481106119b257fe5b906000526020600020016000915090508054600181600116156101000203166002900480601f016020809104026020016040519081016040528092919081815260200182805460018160011615610100020316600290048015611a565780601f10611a2b57610100808354040283529160200191611a56565b820191906000526020600020905b815481529060010190602001808311611a3957829003601f168201915b505050505081565b60606000600760003373ffffffffffffffffffffffffffffffffffffffff1673ffffffffffffffffffffffffffffffffffffffff1681526020019081526020016000208381548110611aac57fe5b9060005260206000209060020201600001600760003373ffffffffffffffffffffffffffffffffffffffff1673ffffffffffffffffffffffffffffffffffffffff1681526020019081526020016000208481548110611b0757fe5b906000526020600020906002020160010154818054600181600116156101000203166002900480601f016020809104026020016040519081016040528092919081815260200182805460018160011615610100020316600290048015611bae5780601f10611b8357610100808354040283529160200191611bae565b820191906000526020600020905b815481529060010190602001808311611b9157829003601f168201915b5050505050915091509150915091565b828054600181600116156101000203166002900490600052602060002090601f016020900481019282601f10611bff57805160ff1916838001178555611c2d565b82800160010185558215611c2d579182015b82811115611c2c578251825591602001919060010190611c11565b5b509050611c3a9190611d4b565b5090565b604051806040016040528060608152602001600081525090565b828054600181600116156101000203166002900490600052602060002090601f016020900481019282601f10611c9957805160ff1916838001178555611cc7565b82800160010185558215611cc7579182015b82811115611cc6578251825591602001919060010190611cab565b5b509050611cd49190611d4b565b5090565b6040518061010001604052806060815260200160608152602001606081526020016000815260200160608152602001600073ffffffffffffffffffffffffffffffffffffffff168152602001600015158152602001600073ffffffffffffffffffffffffffffffffffffffff1681525090565b611d6d91905b80821115611d69576000816000905550600101611d51565b5090565b9056fe56616c7565204d75737420626520457175616c20746f205072696365206f662050726f6475637450726f647563742057697468207468697320496420697320616c7265616479204163746976652e20557365206f7468657220556e697175654964a265627a7a7231582038824f504346145709e8735178ccf6a9344b53930e954f4445b71d7f1938b07064736f6c63430005110032",
  "source": "pragma solidity ^0.5.4;\n\ncontract shoppy {\n    address payable public owner;\n\n    constructor() public {\n        owner = msg.sender;\n    }\n\n    uint256 id;\n    uint256 purchaseId;\n    struct seller {\n        string name;\n        address addr;\n        uint256 bankGuaraantee;\n        bool bgPaid;\n    }\n    struct product {\n        string productId;\n        string productName;\n        string Category;\n        uint256 price;\n        string description;\n        address payable seller;\n        bool isActive;\n\t\t\t\t\t\t\t\taddress owner;\n    }\n    struct ordersPlaced {\n        string productId;\n        uint256 purchaseId;\n        address orderedBy;\n    }\n    struct user {\n        string name;\n        string email;\n        string deliveryAddress;\n        bool isCreated;\n    }\n    struct orders {\n        string productId;\n        // string orderStatus;\n        uint256 purchaseId;\n    }\n    mapping(address => seller) public sellers;\n    mapping(string => product) products;\n    string[] public allProducts;\n\n    mapping(address => user) users;\n    mapping(address => orders[]) userOrders;\n\n    function sellerSignUp(string memory _name) public payable {\n        require(!sellers[msg.sender].bgPaid, \"You are Already Registered\");\n        require(msg.value == 5 ether, \"Bank Guarantee of 5ETH Required\");\n        owner.transfer(msg.value);\n        sellers[msg.sender].name = _name;\n        sellers[msg.sender].addr = msg.sender;\n        sellers[msg.sender].bankGuaraantee = msg.value;\n        sellers[msg.sender].bgPaid = true;\n    }\n\n    function createAccount(\n        string memory _name,\n        string memory _email,\n        string memory _deliveryAddress\n    ) public {\n        users[msg.sender].name = _name;\n        users[msg.sender].email = _email;\n        users[msg.sender].deliveryAddress = _deliveryAddress;\n        users[msg.sender].isCreated = true;\n    }\n\n    function buyProduct(string memory _productId) public payable {\n        require(\n            msg.value == products[_productId].price,\n            \"Value Must be Equal to Price of Product\"\n        );\n        require(users[msg.sender].isCreated, \"You Must Be Registered to Buy\");\n\n        products[_productId].seller.transfer(msg.value);\n\n        purchaseId = id++;\n        orders memory order = orders(\n            _productId,\n            purchaseId\n        );\n        userOrders[msg.sender].push(order);\n        products[_productId].owner = msg.sender;\n        \n    }\n\n    function addProduct(\n        string memory _productId,\n        string memory _productName,\n        string memory _category,\n        uint256 _price,\n        string memory _description\n    ) public {\n        require(sellers[msg.sender].bgPaid, \"You are not Registered as Seller\");\n        require(\n            !products[_productId].isActive,\n            \"Product With this Id is already Active. Use other UniqueId\"\n        );\n\n        product memory productInstace = product(\n            _productId,\n            _productName,\n            _category,\n            _price,\n            _description,\n            msg.sender,\n            true,\n\t\t\t\t\t\t\t\t\t\t\t\tmsg.sender\n        );\n        products[productInstace.productId].productId = productInstace.productId;\n        products[productInstace.productId].productName = productInstace.productName;\n        products[productInstace.productId].Category = productInstace.Category;\n        products[productInstace.productId].description = productInstace.description;\n        products[productInstace.productId].price = productInstace.price;\n        products[productInstace.productId].seller = msg.sender;\n        products[productInstace.productId].isActive = true;\n\t\tproducts[productInstace.productId].owner = msg.sender;\n        allProducts.push(productInstace.productId);\n    }\n\n    function myOrders(uint256 _index)\n        public\n        view\n        returns(string memory, uint)\n    {\n        return (userOrders[msg.sender][_index].productId, userOrders[msg.sender][_index].purchaseId);\n    }\n}\n",
  "sourcePath": "/Users/akhil/Documents/DApps/d-e-app/contracts/ecom.sol",
  "compiler": {
    "name": "solc",
    "version": "0.5.17+commit.d19bba13.Emscripten.clang"
  },
  "schemaVersion": "3.4.4",
  "updatedAt": "2022-04-10T20:49:45.486Z",
  "devdoc": {
    "methods": {}
  },
  "userdoc": {
    "methods": {}
  }
}